:03000000020538BE
:0C053800787FE4F6D8FD75817D02057F18
:10064F00636F6E00636F66660053797374656D2018
:10065F00696E69740D0A00696E766F6B65203332AF
:10066F003431613634316562623434336636623127
:10067F006164646436646165613231383734206790
:10068F006574476D740D0A00706172616D206C693D
:10069F0067687420300D0A00706172616D206C699B
:0806AF0067687420310D0A0098
:10072100040800000000015100040C000000000A50
:1007310053C0F9A4B0999282F8809001520001103F
:0107410000B7
:10074300C2AC1200266010F5993099FDC29974016C
:0A07530029F9E43AFA80EBD2AC2257
:0C07A800C2AC8F993099FDC299D2AC22EE
:0406B7008F778D7834
:1006BB00E4757C01F57BF57AF579F57DC3E5786416
:1006CB0080F8E57D6480985020AB7CAA7BA97AA842
:1006DB0079AF77EF3395E0FEFDFC12006C8F7C8ECB
:1006EB007B8D7A8C79057D80D3AF7CAE7BAD7AAC7C
:0106FB007985
:0106FC0022DB
:0604A9008B6D8A6E896F65
:1004AF00E4F573F572F571F5701207768F74EF241A
:1004BF00FFF576E434FFF575D3E5769400E57564C2
:1004CF00809480405BE574149576FD7F0A1206B721
:1004DF00C004C005C006C007AB6DAA6EA96F8576B4
:1004EF008285758312003FFF3395E0FEEF24D0FF26
:1004FF00EE34FFFEE4FCFDD003D002D001D0001299
:10050F00006CE5732FF573E5723EF572E5713DF5FD
:10051F0071E5703CF570E5761576709C15758098D1
:08052F00AF73AE72AD71AC7048
:0105370022A1
:1003E900756400756500756611E51164696003023D
:0203F900047985
:1003FB00FB7A0079111204A98F6A8E698D688C675C
:10040B00E47B3CFAF9F81200F7E47B3CFAF9F812BA
:10041B0000F7AF038F6BE47B3CFAF9F8AF6AAE6978
:10042B00AD68AC671200F7EF24E0FFEE3401FEE499
:10043B003DFDE43CFCE47B3CFAF9F81200F7E47B6D
:10044B0018FAF9F81200F7AF038F6CE56C75F00A28
:10045B0084F508E56C75F00A8485F009E56B75F099
:0D046B000A84F50AE56B75F00A8485F00B34
:1004780022E51264637029A866AC65AD647BFF7AD7
:1004880006794F120307EF7003C2A622A866AC656F
:10049800AD647BFF7A067953120307EF7002D2A688
:0104A8002231
:100003007598504389215389EF758DFA758BFA439F
:0B0013008780D28EC299C298D2AC2226
:03002300020324B1
:10032400C0E0C0F0C083C082C0D075D000C000C09F
:0D03340001C002C003C004C005C006C00720
:10034100AF99BF24057510018079BF7B0AE510B410
:100351000105751002806CE510B40213EF64696049
:1003610005EF6463705D7510038F1105528054E5CC
:1003710010B40312BF73057510048047EF646570F4
:1003810042751063803DBF7D0DE510B40408751002
:1003910005755201802DE510B4051674112552F82A
:1003A100A6070552E552B43F1A75500075106480D6
:1003B10012BF7D0FE510B4630A75106474112552E4
:0D03C100F87600E510B464031203E9C29859
:1003CE00D007D006D005D004D003D002D001D00083
:0B03DE00D0D0D082D083D0F0D0E0322D
:1005C400E4F55DF55EF55FFEF5607561FFD2AF128F
:1005D40000037BFF7A0679581207437BFF7A06797A
:1005E40066120743E4F55DE4F55E74532508F8E606
:1005F400FF7D0812079B74532509F8E6FF7D04125A
:10060400079B7453250AF8E6FF7D0212079B745377
:10061400250BF8E6FF7D0112079BA2A7E433FE65D4
:100624005160147BFFBE01067A06799780047A062E
:1006340079A71207438E51055EE55EC3949640AADE
:0B064400055DE55DC3943C409E809086
:05001E000000000022BB
:1006FD00C2A1C2A212001EE4FEEF5480FD24FF929F
:10070D00A3D2A112001EEF25E0FFC2A112001E0E02
:03071D00BE08E62D
:0107200022B6
:0D079B00AC051206FDAF041206FD02078B2F
:10078B0012001ED2A212001E12001EC2A202001ED6
:10075D00D3EF9400EE9400400F7D267C82DCFEDD0D
:08076D00FAEF1F70EB1E80E89B
:010775002261
:100544000205C4E493A3F8E493A34003F68001F204
:1005540008DFF48029E493A3F85407240CC8C333B8
:10056400C4540F4420C8834004F456800146F6DF87
:10057400E4800B0102040810204080900721E47EEF
:10058400019360BCA3FF543F30E509541FFEE4937C
:10059400A360010ECF54C025E060A840B8E493A343
:1005A400FAE493A3F8E493A3C8C582C8CAC583CA6E
:1005B400F0A3C8C582C8CAC583CADFE9DEE780BE26
:0107420000B6
:10002600BB010689828A83E0225002E722BBFE02D8
:09003600E32289828A83E493220B
:10003F00BB010CE58229F582E5833AF583E0225076
:10004F0006E92582F8E622BBFE06E92582F8E222C0
:0D005F00E58229F582E5833AF583E49322DA
:10006C00E88FF0A4CC8BF0A42CFCE98EF0A42CFC33
:10007C008AF0EDA42CFCEA8EF0A4CDA8F08BF0A4B1
:10008C002DCC3825F0FDE98FF0A42CCD35F0FCEB10
:10009C008EF0A4FEA9F0EB8FF0A4CFC5F02ECD39D5
:0F00AC00FEE43CFCEAA42DCE35F0FDE43CFC2242
:1000BB0075F008758200EF2FFFEE33FECD33CDCCFC
:1000CB0033CCC58233C5829BED9AEC99E58298407F
:1000DB000CF582EE9BFEED9AFDEC99FC0FD5F0D65C
:1000EB00E4CEFBE4CDFAE4CCF9A88222B800C1B986
:1000FB000059BA002DEC8BF084CFCECDFCE5F0CBC4
:10010B00F97818EF2FFFEE33FEED33FDEC33FCEBFC
:10011B0033FB10D703994004EB99FB0FD8E5E4F9B7
:10012B00FA227818EF2FFFEE33FEED33FDEC33FCA4
:10013B00C933C910D7059BE99A4007EC9BFCE99A98
:10014B00F90FD8E0E4C9FAE4CCFB2275F010EF2FDD
:10015B00FFEE33FEED33FDCC33CCC833C810D707DD
:10016B009BEC9AE899400AED9BFDEC9AFCE899F818
:0E017B000FD5F0DAE4CDFBE4CCFAE4C8F922AB
:10018900E3F5F009E208B5F06D606B80F3E3F5F093
:1001990009E608B5F060605E80F387F009E608B506
:1001A900F054605280F487F009E208B5F0486046DF
:1001B90080F488828C8387F009E0A3B5F038603633
:1001C90080F488828C8387F009E493A3B5F02760D3
:1001D9002580F388828C83E3F5F009E0A3B5F01656
:1001E900601480F388828C83E3F5F009E493A3B566
:1001F900F004600280F20202B4808580E7808E807C
:10020900D2803C8015806C807E809B80B5808B80FD
:10021900A1804F8070803A0202C089828A83ECFAF9
:10022900E493F5F0A3C8C582C8CCC583CCE493A3F5
:10023900C8C582C8CCC583CCB5F070606E80E18931
:10024900828A83E493F5F0A3E208B5F05E605C80EE
:10025900F289828A83E0F5F0A3E608B5F04D604B98
:1002690080F389828A83E0F5F0A3E208B5F03C6067
:100279003A80F389828A83E493F5F0A3E608B5F01E
:100289002A602880F2805389828A83ECFAE493F504
:10029900F0A3C8C582C8CCC583CCE0A3C8C582C8B1
:1002A900CCC583CCB5F004600280E27FFFB5F002D3
:1002B9000F2240027F012289828A83ECFAE0F5F05D
:1002C900A3C8C582C8CCC583CCE0A3C8C582C8CCA5
:1002D900C583CCB5F0D560D380E389828A83ECFAF3
:1002E900E0F5F0A3C8C582C8CCC583CCE493A3C804
:1002F900C582C8CCC583CCB5F0B160AF80E288F0C7
:10030900ED2402B4040050A3F582EB2402B40400E6
:0B0319005099232345822390020273B9
:10077600E4FFFE120026600C0FEF70010E09E9700F
:05078600F20A80EF22E1
:00000001FF
